:10056900120638120670D2AF7F01C280C282EF60D4
:10057900051201E480F87F01EF600512014B80F854
:10058900D2807F01E532B401FBE4F5321205A9EF0F
:1005990060F2BF0104C28280EBBF02E8D28280E42C
:09068600007F027EC7DEFEDFFCEE
:01068F002248
:04065700AD07AC0639
:10065B00E4FBFAC3EB9DEA9C500A1206860BBB0027
:04066B00010A80EF11
:01066F002268
:1003000041540D0A004F4B0041542B4350494E3F7E
:100310000D0A0052454144590041542B4352454770
:100320003F0D0A00302C3100302C350041542B4356
:1003300053510D0A0041542B434D47463D310D0AA0
:100340000041542B435343533D2247534D220D0A42
:100350000041542B435343413F0D0A0041542B436A
:10036000534D503D31372C3136372C302C3234310F
:100370000D0A0041542B434E4D493D322C320D0A9B
:08038000006F6E006F6666005D
:0605E0008B1D8A1E891F1D
:1005E6007B007A007900E53030E721547FFE740005
:1005F6002531F58274003EF583E4F0851D23851EC2
:0C06060024851F250B7A00790012038860
:0106120022C5
:100487007517FF751803751905751A00751B647BB9
:05049700FF7A0379006B
:10049C00E4F51CF530F531753301120613E51845FA
:1004AC00194517603DE51B451A6037E51B151B7098
:1004BC0002151A14451A60217F0A7E00120657E5B0
:1004CC003030E7E7AB17AA18A9191205E0EA494B37
:1004DC007007E4F530F53180D2E51B451A700375D1
:0B04EC001C01E4F530F531F533AF1CC6
:0104F70022E2
:1001E400120487EF6009120487EF60037FFF227512
:1001F40017FF751803751913751A01751B907BFF8A
:100204007A03790812049CEF60037FFE227517FFBE
:10021400751803751924751A01751B907BFF7A03F1
:10022400791912049CEF60457523FF752403752525
:10023400287B017A007900120388E94A4B702E75F5
:1002440017FF751803751905F51A751BC87BFF7A16
:1002540003792C12049CEF7011782C7C00FD7B0137
:100264007A00790FFE7F021200F67FFD227F0022C2
:10014B007517FF751803751905751A00751B647BF8
:10015B00FF7A03793512049CEF60037FFA2275173F
:10016B00FF751803751905751A00751B647BFF7AEB
:10017B0003794112049CEF60037FF9227517FF7519
:10018B001803751905751A00751B647BFF7A0379C3
:10019B005112049CEF60037FF8227517FF7518034B
:1001AB00751905751A00751B647BFF7A03795C1250
:1001BB00049CEF60037FF7227517FF751803751901
:1001CB0005751A00751BC87BFF7A03797312049CA3
:0901DB00EF60037FF4227F002293
:1005A9007523FF7524037525817B017A0079001273
:1005B9000388E94A4B60037F01227523FF752403F1
:1005C9007525847B017A007900120388E94A4B601A
:0705D900037F02227F0022D4
:05069000434D543A0047
:10067000538E7F5389F0438901E4F58A758CDCC27F
:060680008DD2A9C28C22FC
:07001A00E4F58A758CDC227D
:03000B000204F8F4
:1004F800C0E0C0F0C083C082C0D075D000C000C0CA
:1005080001C002C003C004C005C006C007C28C43B6
:100518003080E530547FFE74002531F58274003E4A
:10052800F583E4F0E533701EF530F5317523FF757A
:1005380024067525907B017A007900120388E94A20
:100548004B6003753201D007D006D005D004D00324
:10055800D002D001D000D0D0D082D083D0F0D0E06B
:010568003260
:070003000230000001320091
:1006380053877F759850538EBF538EFE53890F434F
:0F0648008920758BFD758DFDC2ABD28ED2AC2291
:0C000E00C2AC8F993099FDC299D2AC228F
:100613008B1D8A1E891FAB1DAA1EA91F12011C60F8
:1006230013051FE51F7002051E14F912011CFF12AA
:05063300000E80E22230
:0300230002040ACA
:10040A00C0E0C0F0C083C082C0D075D000C000C0B8
:10041A0001C002C003C004C005C006C00730983D31
:10042A00C298AE30AF31E4FCFD7B807A967998F8B9
:10043A00D3120135402412001AE53145307002D238
:10044A008C0531E531AE3070020530142400F58296
:10045A0074003EF583E599F08003433080309902B9
:10046A00C299D007D006D005D004D003D002D0015B
:0D047A00D000D0D0D082D083D0F0D0E032BE
:0300000002027485
:0C027400787FE4F6D8FD7581330202BBF0
:10002600E709F608DFFA8046E709F208DFFA803EBC
:1000360088828C83E709F0A3DFFA8032E309F608A9
:10004600DFFA8078E309F208DFFA807088828C8311
:10005600E309F0A3DFFA806489828A83E0A3F608C5
:10006600DFFA805889828A83E0A3F208DFFA804C9F
:1000760080D280FA80C680D4806980F28033801076
:1000860080A680EA809A80A880DA80E280CA8033DF
:1000960089828A83ECFAE493A3C8C582C8CCC58357
:1000A600CCF0A3C8C582C8CCC583CCDFE9DEE78027
:1000B6000D89828A83E493A3F608DFF9ECFAA9F0A6
:1000C600EDFB2289828A83ECFAE0A3C8C582C8CCFC
:1000D600C583CCF0A3C8C582C8CCC583CCDFEADE15
:1000E600E880DB89828A83E493A3F208DFF980CC77
:1000F60088F0EF60010E4E60C388F0ED2402B40470
:100106000050B9F582EB2402B4040050AF23234516
:06011600822390007673C5
:10011C00BB010689828A83E0225002E722BBFE02E1
:09012C00E32289828A83E4932214
:10013500EB9FF5F0EA9E42F0E99D42F0EC6480C841
:0601450064809845F022E1
:100388008B208A218922AB23AA24A92512011C606B
:1003980063AB20AA21A92212011C605F8523268550
:1003A80024278525288B298A2A892BAB26AA27A9C1
:1003B8002812011CFF6023AB29AA2AA92B12011CB1
:1003C8006F7017042528F528E43527F527740125CB
:1003D8002BF52BE4352AF52A80D1AB26AA27A928A4
:1003E80012011C7002800D74012522F522E43521CA
:1003F800F521809DAB20AA21A922227B007A0079D1
:020408000022D0
:10028000020569E493A3F8E493A34003F68001F226
:1002900008DFF48029E493A3F85407240CC8C3337F
:1002A000C4540F4420C8834004F456800146F6DF4E
:1002B000E4800B0102040810204080900003E47EDB
:1002C000019360BCA3FF543F30E509541FFEE49343
:1002D000A360010ECF54C025E060A840B8E493A30A
:1002E000FAE493A3F8E493A3C8C582C8CAC583CA35
:1002F000F0A3C8C582C8CAC583CADFE9DEE780BEED
:01000A0000F5
:00000001FF
